{
    "contractName": "Bridge",
    "abi": [
        {
            "anonymous": false,
            "inputs": [
                {
                    "indexed": true,
                    "internalType": "bytes32",
                    "name": "role",
                    "type": "bytes32"
                },
                {
                    "indexed": true,
                    "internalType": "bytes32",
                    "name": "previousAdminRole",
                    "type": "bytes32"
                },
                {
                    "indexed": true,
                    "internalType": "bytes32",
                    "name": "newAdminRole",
                    "type": "bytes32"
                }
            ],
            "name": "RoleAdminChanged",
            "type": "event"
        },
        {
            "anonymous": false,
            "inputs": [
                {
                    "indexed": true,
                    "internalType": "bytes32",
                    "name": "role",
                    "type": "bytes32"
                },
                {
                    "indexed": true,
                    "internalType": "address",
                    "name": "account",
                    "type": "address"
                },
                {
                    "indexed": true,
                    "internalType": "address",
                    "name": "sender",
                    "type": "address"
                }
            ],
            "name": "RoleGranted",
            "type": "event"
        },
        {
            "anonymous": false,
            "inputs": [
                {
                    "indexed": true,
                    "internalType": "bytes32",
                    "name": "role",
                    "type": "bytes32"
                },
                {
                    "indexed": true,
                    "internalType": "address",
                    "name": "account",
                    "type": "address"
                },
                {
                    "indexed": true,
                    "internalType": "address",
                    "name": "sender",
                    "type": "address"
                }
            ],
            "name": "RoleRevoked",
            "type": "event"
        },
        {
            "inputs": [],
            "name": "DEFAULT_ADMIN_ROLE",
            "outputs": [
                {
                    "internalType": "bytes32",
                    "name": "",
                    "type": "bytes32"
                }
            ],
            "stateMutability": "view",
            "type": "function"
        },
        {
            "inputs": [
                {
                    "internalType": "bytes32",
                    "name": "role",
                    "type": "bytes32"
                }
            ],
            "name": "getRoleAdmin",
            "outputs": [
                {
                    "internalType": "bytes32",
                    "name": "",
                    "type": "bytes32"
                }
            ],
            "stateMutability": "view",
            "type": "function"
        },
        {
            "inputs": [
                {
                    "internalType": "bytes32",
                    "name": "role",
                    "type": "bytes32"
                },
                {
                    "internalType": "address",
                    "name": "account",
                    "type": "address"
                }
            ],
            "name": "grantRole",
            "outputs": [],
            "stateMutability": "nonpayable",
            "type": "function"
        },
        {
            "inputs": [
                {
                    "internalType": "bytes32",
                    "name": "role",
                    "type": "bytes32"
                },
                {
                    "internalType": "address",
                    "name": "account",
                    "type": "address"
                }
            ],
            "name": "hasRole",
            "outputs": [
                {
                    "internalType": "bool",
                    "name": "",
                    "type": "bool"
                }
            ],
            "stateMutability": "view",
            "type": "function"
        },
        {
            "inputs": [
                {
                    "internalType": "bytes32",
                    "name": "role",
                    "type": "bytes32"
                },
                {
                    "internalType": "address",
                    "name": "account",
                    "type": "address"
                }
            ],
            "name": "renounceRole",
            "outputs": [],
            "stateMutability": "nonpayable",
            "type": "function"
        },
        {
            "inputs": [
                {
                    "internalType": "bytes32",
                    "name": "role",
                    "type": "bytes32"
                },
                {
                    "internalType": "address",
                    "name": "account",
                    "type": "address"
                }
            ],
            "name": "revokeRole",
            "outputs": [],
            "stateMutability": "nonpayable",
            "type": "function"
        },
        {
            "inputs": [
                {
                    "internalType": "bytes4",
                    "name": "interfaceId",
                    "type": "bytes4"
                }
            ],
            "name": "supportsInterface",
            "outputs": [
                {
                    "internalType": "bool",
                    "name": "",
                    "type": "bool"
                }
            ],
            "stateMutability": "view",
            "type": "function"
        }
    ],
    "bytecode": "608060405234801561001057600080fd5b506107f5806100206000396000f3fe608060405234801561001057600080fd5b506004361061007d5760003560e01c806336568abe1161005b57806336568abe146100e057806391d14854146100f3578063a217fddf14610106578063d547741f1461010e5761007d565b806301ffc9a714610082578063248a9ca3146100ab5780632f2ff15d146100cb575b600080fd5b6100956100903660046105c3565b610121565b6040516100a29190610660565b60405180910390f35b6100be6100b9366004610571565b61014c565b6040516100a2919061066b565b6100de6100d9366004610589565b610161565b005b6100de6100ee366004610589565b610182565b610095610101366004610589565b6101d1565b6100be6101fa565b6100de61011c366004610589565b6101ff565b60006001600160e01b03198216637965db0b60e01b148061014657506101468261021b565b92915050565b60009081526020819052604090206001015490565b61016a8261014c565b61017381610234565b61017d8383610248565b505050565b61018a6102cd565b6001600160a01b0316816001600160a01b0316146101c35760405162461bcd60e51b81526004016101ba906106dc565b60405180910390fd5b6101cd82826102d1565b5050565b6000918252602082815260408084206001600160a01b0393909316845291905290205460ff1690565b600081565b6102088261014c565b61021181610234565b61017d83836102d1565b6001600160e01b031981166301ffc9a760e01b14919050565b610245816102406102cd565b610354565b50565b61025282826101d1565b6101cd576000828152602081815260408083206001600160a01b03851684529091529020805460ff191660011790556102896102cd565b6001600160a01b0316816001600160a01b0316837f2f8788117e7eff1d82e926ec794901d17c78024a50270940304540a733656f0d60405160405180910390a45050565b3390565b6102db82826101d1565b156101cd576000828152602081815260408083206001600160a01b03851684529091529020805460ff191690556103106102cd565b6001600160a01b0316816001600160a01b0316837ff6391f5c32d9c69d2a47ea670b442974b53935d1edc7fd64eb21e047a839171b60405160405180910390a45050565b61035e82826101d1565b6101cd57610376816001600160a01b031660146103b8565b6103818360206103b8565b6040516020016103929291906105eb565b60408051601f198184030181529082905262461bcd60e51b82526101ba91600401610674565b606060006103c7836002610743565b6103d290600261072b565b67ffffffffffffffff8111156103f857634e487b7160e01b600052604160045260246000fd5b6040519080825280601f01601f191660200182016040528015610422576020820181803683370190505b509050600360fc1b8160008151811061044b57634e487b7160e01b600052603260045260246000fd5b60200101906001600160f81b031916908160001a905350600f60fb1b8160018151811061048857634e487b7160e01b600052603260045260246000fd5b60200101906001600160f81b031916908160001a90535060006104ac846002610743565b6104b790600161072b565b90505b600181111561054b576f181899199a1a9b1b9c1cb0b131b232b360811b85600f16601081106104f957634e487b7160e01b600052603260045260246000fd5b1a60f81b82828151811061051d57634e487b7160e01b600052603260045260246000fd5b60200101906001600160f81b031916908160001a90535060049490941c9361054481610792565b90506104ba565b50831561056a5760405162461bcd60e51b81526004016101ba906106a7565b9392505050565b600060208284031215610582578081fd5b5035919050565b6000806040838503121561059b578081fd5b8235915060208301356001600160a01b03811681146105b8578182fd5b809150509250929050565b6000602082840312156105d4578081fd5b81356001600160e01b03198116811461056a578182fd5b60007f416363657373436f6e74726f6c3a206163636f756e742000000000000000000082528351610623816017850160208801610762565b7001034b99036b4b9b9b4b733903937b6329607d1b6017918401918201528351610654816028840160208801610762565b01602801949350505050565b901515815260200190565b90815260200190565b6000602082528251806020840152610693816040850160208701610762565b601f01601f19169190910160400192915050565b6020808252818101527f537472696e67733a20686578206c656e67746820696e73756666696369656e74604082015260600190565b6020808252602f908201527f416363657373436f6e74726f6c3a2063616e206f6e6c792072656e6f756e636560408201526e103937b632b9903337b91039b2b63360891b606082015260800190565b6000821982111561073e5761073e6107a9565b500190565b600081600019048311821515161561075d5761075d6107a9565b500290565b60005b8381101561077d578181015183820152602001610765565b8381111561078c576000848401525b50505050565b6000816107a1576107a16107a9565b506000190190565b634e487b7160e01b600052601160045260246000fdfea264697066735822122075b88382a581f19df1f316c6ce7b2cbaca6b18e58e69267e60f03b5d22553f1064736f6c63430008000033",
    "sourcePath": "d:/programming/Blockchain projects/Cross-Chain Bridge/contracts/bridge.sol",
    "compiler": {
        "name": "solc",
        "version": "0.8.0+commit.c7dfd78e"
    },
    "functionHashes": {
        "DEFAULT_ADMIN_ROLE()": "a217fddf",
        "getRoleAdmin(bytes32)": "248a9ca3",
        "grantRole(bytes32,address)": "2f2ff15d",
        "hasRole(bytes32,address)": "91d14854",
        "renounceRole(bytes32,address)": "36568abe",
        "revokeRole(bytes32,address)": "d547741f",
        "supportsInterface(bytes4)": "01ffc9a7"
    },
    "gasEstimates": {
        "creation": {
            "codeDepositCost": "407400",
            "executionCost": "443",
            "totalCost": "407843"
        },
        "external": {
            "DEFAULT_ADMIN_ROLE()": "272",
            "getRoleAdmin(bytes32)": "1203",
            "grantRole(bytes32,address)": "infinite",
            "hasRole(bytes32,address)": "1375",
            "renounceRole(bytes32,address)": "infinite",
            "revokeRole(bytes32,address)": "infinite",
            "supportsInterface(bytes4)": "493"
        }
    }
}